:100000000C9484000C94AC000C94AC000C94AC00E8
:100010000C94AC000C94AC000C942C1C0C944E1B57
:100020000C94AC000C94AC000C94AC000C94AC00A0
:100030000C94AC000C94AC000C94AC000C94AC0090
:100040000C94211D0C94AC000C94AE1E0C94F51E67
:100050000C94AC000C94AC000C94AC000C94AC0070
:100060000C94FA180C94AC00000000002400270047
:100070002A0000000000250028002B0000000000DE
:1000800023002600290004040404040404040202DA
:100090000202020203030303030301020408102007
:1000A0004080010204081020010204081020000012
:1000B0000007000201000003040600000000000029
:1000C0000000494E46494E4954594E414ECDCCCC84
:1000D0003D0AD7233C17B7D13877CC2B329595E61C
:1000E000241FB14F0A000020410000C84200401CFC
:1000F0004620BCBE4CCA1B0E5AAEC59D7400FD0204
:10010000080EF0173220F60211241FBECFEFD8E000
:10011000DEBFCDBF13E0A0E0B1E0E2E7FDE402C046
:1001200005900D92A830B107D9F715E0A8E0B3E02B
:1001300001C01D92AF30B107E1F710E0C6E0D1E099
:1001400004C02297FE010E945E26CE3FD107C9F768
:100150000E9488200C94AC260C9400006627772718
:100160000C943701FC0188279927E89421912032CB
:10017000E9F3293010F02E30C8F32B3241F02D3244
:1001800039F4689404C00E942F01820F911D2191BF
:1001900020532A30C0F31EF4909581959F4F089507
:1001A000FB01DC0102C001900D9241505040D8F794
:1001B0000895FB01DC0101900D920020E1F7089504
:1001C000FB01DC014150504030F08D9101908019CD
:1001D00019F40020B9F7881B990B0895FB01DC0185
:1001E0004150504048F001900D920020C9F701C0E5
:1001F0001D9241505040E0F70895009731F4DA0124
:100200008D919C91009709F40EC0DC01FB013D919A
:100210002191222319F03217C9F3FACF332331F495
:10022000DA011D921C928827992708951197AF93A0
:10023000BF93FB013D912191321771F4332321F4D7
:1002400088279927119702C01E921196FA01A1934F
:10025000B0839F918F910895222369F7EACF7AE0C6
:10026000979F902D879F802D910D11240895A0E0D8
:10027000B0E0EDE3F1E00C947B26EC015B0161154D
:10028000710519F0FB0191838083F9908F2D90E027
:100290000E946A26892BC9F7FDE2FF1621F4F99026
:1002A000EE24E39405C02BE2F21609F4F990EE2453
:1002B0008E0101501040C80162EC70E043E050E054
:1002C0000E949702892B01F58E010E5F1F4FC80116
:1002D00065EC70E045E050E00E949702892B19F42C
:1002E0008E01095F1F4FA114B10419F0F5011183AC
:1002F0000083E0FC04C070E090E080E814C070E08F
:1003000090E080E86FEF08C1C8016AEC70E043E05C
:1003100050E00E949702892B69F4A114B10429F4DA
:1003200070E090E080EC6FE7F7C02296F501D18392
:10033000C083F6CF8824992440E050E060E070E06C
:10034000EF2DE053EA30A0F5F2E0EF2A8E2D90E099
:100350009C0128703070E2FE06C0232B79F50894CA
:10036000811C911C2BC0232B19F008948108910843
:10037000DB01CA0112E0880F991FAA1FBB1F1A9543
:10038000D1F7480F591F6A1F7B1F440F551F661F67
:10039000771F4E0F511D611D711D483929E9520704
:1003A00029E9620729E1720748F084E0E82A06C0DB
:1003B000EE3F31F4E3FC39C098E0E92AF990C0CF70
:1003C000E53311F0E53189F529912D3219F4E0E199
:1003D000EE2A05C02B3219F081E090E003C029918C
:1003E00082E090E0E22FE053EA3018F0C81BD90B0E
:1003F0001CC020E030E0FCE020383F075CF4C9017D
:10040000880F991F880F991F280F391F220F331F3C
:100410002E0F311DE991E053EA3068F3E4FE03C08A
:10042000309521953F4F820E931ECE2CDD24E1FEA8
:1004300007C0A114B10421F02197F501D183C08335
:10044000CB01BA010E94D7247B018C01F3E0CF22BB
:10045000DD2423E0C216D10421F417FB109517F90F
:10046000109557016801C801B70120E030E040E075
:1004700050E00E943A24882309F44AC097FE0DC038
:1004800021EEE22E20E0F22E909481949108939434
:10049000C0E2D0E000E010E012C099EFE92E90E059
:1004A000F92EF6CFF7012591359145915491C6016A
:1004B000B5010E948D255B016C018C1A9D0A8C167A
:1004C0009D0684F7D595C7950F5F1F4F0630110520
:1004D00029F08CEF9FEFE80EF91EF1CFC501D60190
:1004E0007C018D018C2D880F8D2D881F8F3F51F041
:1004F000C601B50120E030E040E050E00E943A241F
:10050000882331F482E290E090930E0580930D05EC
:100510007E2D9F2D802F612F272F392F482F562F6B
:10052000B901CA01CDB7DEB7ECE00C949726FB0108
:10053000DC014150504088F08D9181341CF08B35A6
:100540000CF4805E659161341CF06B350CF4605ED8
:10055000861B611171F3990B0895881BFCCFEF92F4
:10056000FF920F931F938130910531F56F5F7F4F9D
:10057000C1F588E093E00E94850989E093E067E097
:1005800046E023E002E038E0E32E33E0F32E0E9461
:100590009B1287E293E069E073E0A7010E949D0649
:1005A0008DE293E069E073E0A70127E233E000E029
:1005B00011E00E94F20D15C0892B99F46F5F7F4FF7
:1005C00081F48DE293E00E94070E87E293E00E949F
:1005D000A50689E093E00E94DB1288E093E00E9488
:1005E00086091F910F91FF90EF90089580E090E0B1
:1005F0006FEF7FEF0E94AF02089581E090E06FEF10
:100600007FEF0E94AF020895A8950E949612089568
:100610002F923F924F925F926F927F928F929F9212
:10062000AF92BF92CF92DF92EF92FF920F931F9300
:10063000DF93CF93CDB7DEB7E4970FB6F894DEBF64
:100640000FBECDBF88E093E00E94660A68EE73E0BB
:1006500080E090E00E94B21D89E093E060E070E0ED
:1006600040E09E01275F3F4F01E00E9470152D85FD
:100670003E854F855889213189E0380780E0480759
:1006800080E0580734F0205C3D40404050407CF012
:1006900085C180E199E0A0E0B0E0821B930BA40B40
:1006A000B50B805B9440A040B0400CF077C12D8921
:1006B0003E894F89588D2F3B85E0380780E04807F9
:1006C00080E0580734F02C5A3840404050407CF0CD
:1006D00065C18EEB95E0A0E0B0E0821B930BA40B0C
:1006E000B50B8E5E9240A040B0400CF057C188E040
:1006F00093E00E94660A68EE73E080E090E00E945A
:10070000B21D89E093E060E070E040E09E01235E6E
:100710003F4F01E00E9470154D845E846F8478889D
:10072000C9A0DAA0EBA0FCA08D899E89AF89B88D05
:1007300089AB9AABABABBCAB89A49AA4ABA4BCA469
:1007400049E0242E312C2C0E3D1E88E093E00E94BF
:100750004A0A06C064EF71E080E090E00E94B21D9A
:100760000E949612882309F024C189E093E00E9438
:10077000A414882379F70BC064EF71E080E090E067
:100780000E94B21D0E949612882309F012C189E0CE
:1007900093E00E946814882379F764EF71E080E0A9
:1007A00090E00E94B21D89E093E00E94A91482307B
:1007B00009F0EDC068EC70E080E090E00E94B21DAE
:1007C00089E093E060E070E040E0910101E00E9488
:1007D00070158D859E85AF85B88985322CE292078C
:1007E00020E0A20720E0B2073CF08C589C43A040D8
:1007F000B0400CF0CCC010C024E23CE240E050E03D
:10080000281B390B4A0B5B0BDA01C9018856904152
:10081000A040B0400CF0BBC08D899E89AF89B88DD7
:100820008B3E4BE0940740E0A40740E0B4073CF067
:1008300084599141A040B0400CF0A9C010C02AEEEC
:100840003BE040E050E0281B390B4A0B5B0BDA0120
:10085000C9018A5A9540A040B0400CF098C088E089
:1008600093E00E944A0A0E949612882309F0A1C0D0
:1008700068EE73E080E090E00E94B21D0E94961244
:10088000882309F096C0C40CD51CE61CF71CC701D0
:10089000B6010E94D9247B018C0189A99AA9ABA930
:1008A000BCA9880E991EAA1EBB1EC501B4010E94D8
:1008B000D9249B01AC01C801B7010E943E245B0111
:1008C0006C0189E093E060E070E040E09E01235E0F
:1008D0003F4F01E00E94701588E093E00E944A0AB1
:1008E00069A17AA18BA19CA12D853E854F85588950
:1008F000620F731F841F951F0E94D9247B018C01F6
:1009000069A57AA58BA59CA52D893E894F89588D0F
:10091000620F731F841F951F0E94D9249B01AC0195
:10092000C801B7010E943E24A60195010E94D5236B
:100930009B01AC016DEC7CEC8CE090E40E943E24C9
:1009400069837A838B839C83A60195010E948D2500
:100950009B01AC0160E070E080EC9FE30E94D52336
:100960006D837E838F8398870E949612882309F572
:1009700087E293E0BE016F5F7F4F0E94840764ECC3
:1009800079E080E090E00E94B21D81E013C064EF46
:1009900071E080E090E00E94B21DD7CE88E093E045
:1009A0000E94F50968EB7BE080E090E00E94B21DB8
:1009B00001C080E0E4960FB6F894DEBF0FBECDBF55
:1009C000CF91DF911F910F91FF90EF90DF90CF902B
:1009D000BF90AF909F908F907F906F905F904F905F
:1009E0003F902F9008950F9389E093E060E070E0CE
:1009F00040E020E030E001E00E9470159B01AC0176
:100A000097FF0EC029318CEF38078FEF48078FEF23
:100A1000580774F088E093E0B9010E94F20A12C00E
:100A2000203187E2380780E0480780E058072CF043
:100A300088E093E00E94D60A05C088E093E0B901FF
:100A40000E94CA0B0F910895DF92EF92FF920F93CD
:100A50001F93D82E7A018B010E94691D6E197F09A0
:100A6000800B910B615C774289409040D8F188E01F
:100A700093E00E94820A03E716E08DE594E068E0C7
:100A800070E040E050E020E030E00E94DE1B87E6AE
:100A900094E00E94AC1F1816190654F0DD2009F0EE
:100AA00053C089E093E00E946814882309F451C080
:100AB00088E093E00E94D60A0E94691D7B018C01A8
:100AC0003BC064EF71E080E090E00E94B21D8DE5D4
:100AD00094E06AE070E040E050E020E030E00E9406
:100AE000DE1BCBCF0E94691D6E197F09800B910B15
:100AF00020912E03615C744D8140904080F0222350
:100B0000D9F488E093E00E948709682F669588E011
:100B100093E00E94470B81E080932E030DC02223B7
:100B200059F087E293E00E94AC06682F88E093E0DA
:100B30000E94470B10922E03B701C8011F910F911D
:100B4000FF90EF90DF90089589E093E00E94A41455
:100B5000ACCF01501040101611060CF48ECFB1CF5F
:100B6000CF92DF92EF92FF920F931F93EE24FF2418
:100B7000870154E6C52E87E293E00E94A906D82E8D
:100B80000E949612882321F00E94691D7B018C012E
:100B900089E093E00E946814882309F440C00E9411
:100BA000691D7B018C0188E093E00E94BA0A0EC0A7
:100BB00068EE73E080E090E00E94B21D0E94961201
:100BC000882321F00E94691D7B018C0181E0B8011E
:100BD000A7010E9424057B018C0189E093E00E941B
:100BE000A414882329F388E093E061E044EF51E006
:100BF0000E946E0C88E093E00E94820A64EF71E02C
:100C000080E090E00E94B21D0E94F3040E94691DE2
:100C1000AB01BC0180E00E9424057B018C01DC9CBF
:100C2000B001112480E090E00E94B21D80E0B80184
:100C3000A7010E9424057B018C019DCF1F9310E02A
:100C4000812F60E00E941A1E812F60E00E94591ED1
:100C50001F5F1631A9F780917E008F6380937E001D
:100C6000809164008160809364008091640084605E
:100C7000809364001CBC80E685BF80E485BFF89447
:100C8000A895809160008861809360008FE68093D2
:100C9000600078948DE061E00E941A1E8DE061E0B2
:100CA0000E94591E8DE293E040E052EC61E070E05A
:100CB0000E94FF110E94040388E093E060E70E9415
:100CC000C20D88E093E00E94820A89E093E00E94CE
:100CD000781687E293E00E94700988E093E00E9412
:100CE000490D8DE060E00E94591E8DE060E00E9499
:100CF0001A1E87E293E00E94A6068823A1F089E0ED
:100D000093E00E94A914813071F40E9408038823A3
:100D100029F088E093E00E942E0A0DC088E093E05D
:100D20000E94820A08C00E94F30468EE73E080E02B
:100D300090E00E94B21D1F910895FC0171836083B1
:100D40005383428381E0848308950895FC01848164
:100D50000895FC01858108958CE594E06CE270E0D3
:100D60000E94CB1B08950F931F93162F042F8CE521
:100D700094E06AE270E00E94CB1B8A3239F08CE585
:100D800094E06AE270E04AE20E94D21B8CE594E0B3
:100D9000612F70E00E94CB1B801711F480E008C027
:100DA0008CE594E0612F70E0402F0E94D21B81E01F
:100DB0001F910F910895FC01462F65836FE20E94F9
:100DC000B3060895FC01462F64836EE20E94B306C9
:100DD0000895FF920F931F938C01F62EFC018081E2
:100DE00091810E94FD13C8016DE24F2D0E94B30650
:100DF0001F910F91FF900895FF920F931F938C0105
:100E0000F62EFC01828193810E94470BC8016CE29F
:100E10004F2D0E94B3061F910F91FF900895FF92EE
:100E20000F931F938C01F62EFC01808191810E940B
:100E3000F413C8016BE24F2D0E94B3061F910F916E
:100E4000FF9008954F925F926F927F928F929F9240
:100E5000AF92BF92CF92DF92EF92FF920F931F93C8
:100E6000DF93CF9300D000D0CDB7DEB74C01162F63
:100E7000072FFC01808191810E94A313212F302F25
:100E8000C9015C0198E3C92ED12C2E010894411CA4
:100E9000511C85E0682E712C6C0E7D1EF501808141
:100EA0009181A281B38189839A83AB83BC837201D0
:100EB0008601602F0F5F1F4FC401F70141917F0131
:100EC0000E94B306E614F704A1F784E090E0C80E90
:100ED000D91EA80EB91E98E4C916D104F9F60F90D0
:100EE0000F900F900F90CF91DF911F910F91FF9076
:100EF000EF90DF90CF90BF90AF909F908F907F90BA
:100F00006F905F904F9008954F925F926F927F9293
:100F10008F929F92AF92BF92CF92DF92EF92FF9209
:100F20000F931F93DF93CF9300D000D0CDB7DEB7E0
:100F30004C01162F072FFC01808191810E947213B2
:100F4000212F302FC9015C0130E3C32ED12C2E019B
:100F50000894411C511C25E0622E712C6C0E7D1EE4
:100F6000F50180819181A281B38189839A83AB83CA
:100F7000BC8372018601602F0F5F1F4FC401F70110
:100F800041917F010E94B306E614F704A1F784E0C3
:100F900090E0C80ED91EA80EB91E98E3C916D10458
:100FA000F9F60F900F900F900F90CF91DF911F9156
:100FB0000F91FF90EF90DF90CF90BF90AF909F90F8
:100FC0008F907F906F905F904F9008952F923F92F7
:100FD0004F925F926F927F928F929F92AF92BF9249
:100FE000CF92DF92EF92FF920F931F93DF93CF93F5
:100FF000CDB7DEB764970FB6F894DEBF0FBECDBF96
:101000007C018CE594E06BE270E00E94CB1B682FC2
:101010008F3F29F4C70165E00E940F0705C0F70163
:10102000808191810E94F4138CE594E06CE270E081
:101030000E94CB1B682F803128F0C7016AE00E9414
:10104000FC0605C0F701828193810E94470B8CE565
:1010500094E06DE270E00E94CB1B682F8F3F29F473
:10106000C7016AE00E94E90605C0F701808191810D
:101070000E94FD138CE594E06EE270E00E94CB1BB1
:101080008F3F29F4C70161E00E94E20606C0F70124
:101090001482882311F081E084838CE594E06FE270
:1010A00070E00E94CB1B8F3F29F4C7016AE00E94C9
:1010B000DB0602C0F701858355E0852E912C8C0E4E
:1010C0009D1E340140E3C42E01E01E010894211C42
:1010D000311C240121C0612F1F5F8CE594E070E07A
:1010E0000E94CB1BF50180838F3F09F000E008943C
:1010F000A11CB11CA414B50471F7F4E0CF0E8981D2
:101100009A81AB81BC81F30181939193A193B193B7
:101110003F01F8E3CF1619F01C2D5101DCCF00235D
:1011200081F08BE897E8A1E8BFE38D839E83AF83CE
:10113000B8878FE19DEBA1ECBDEB89879A87AB87E0
:10114000BC87C701BE016B5F7F4F0E948407772475
:1011500073941FC08CE594E06D2D70E00E94CB1B52
:101160008F3F09F07724D394F80181938F010A15FA
:101170001B0581F7F4E0CF0E89819A81AB81BC8198
:10118000F40181939193A193B1934F01F8E4CF16A9
:1011900019F0DC2C8101EBCF7720E1F080E090E0CA
:1011A000A0E0B0E08D839E83AF83B88789879A875C
:1011B000AB87BC8783EA9BE8ACECB2E48D879E8763
:1011C000AF87B88B8AEB98E6A0E0B3EC898B9A8B5B
:1011D000AB8BBC8BC701BE016B5F7F4F0E942207A8
:1011E00064960FB6F894DEBF0FBECDBFCF91DF91EE
:1011F0001F910F91FF90EF90DF90CF90BF90AF9035
:101200009F908F907F906F905F904F903F902F9026
:101210000895EF92FF920F931F93DF93CF93CDB773
:10122000DEB760970FB6F894DEBF0FBECDBF8C015E
:1012300065E00E940F07C8016AE00E94FC06C80131
:101240006AE00E94E906C80161E00E94E206C80166
:101250006AE00E94DB068BE897E8A1E8BFE3898398
:101260009A83AB83BC838FE19DEBA1ECBDEB8D83B7
:101270009E83AF83B887C8017E010894E11CF11CEE
:10128000B7010E94840780E090E0A0E0B0E089838D
:101290009A83AB83BC838D839E83AF83B88783EAB5
:1012A0009BE8ACECB2E489879A87AB87BC878AEB72
:1012B00098E6A0E0B3EC8D879E87AF87B88BC80116
:1012C000B7010E94220760960FB6F894DEBF0FBEEA
:1012D000CDBFCF91DF911F910F91FF90EF900895B7
:1012E000CF93DF93EC018CE594E06AE270E00E941A
:1012F000CB1B8A3221F4CE010E94E60703C0CE0147
:101300000E940909DF91CF91089508950895FC0185
:1013100080810895CF93DF93EB019A01CA0168EEB3
:1013200073E00E942726FB01E053FD4F4081488374
:10133000C90168EE73E00E9427269C0164E670E014
:101340000E942726FB01E053FD4F80818983C9015C
:1013500064E670E00E9427269C016AE070E00E942B
:101360002726FB01E053FD4F80818B83C9016AE092
:1013700070E00E942726FC01E053FD4F80818C83A2
:101380004F3349F4188289818F3329F419828B8174
:101390008F3309F41B82DF91CF910895CF93DF93B0
:1013A0008EEC93E060912F030E94B6178EEC93E0D1
:1013B00060E00E943818C0E3D3E0688179817070E2
:1013C0008EEC93E00E94381869818EEC93E00E94C5
:1013D0003818229683E0C034D80779F78EEC93E072
:1013E0000E947B18DF91CF9108950F931F938C017A
:1013F00060E049E70E94110AC80161E049E70E94E4
:10140000110AC80163E049E70E94110AC80164E0BB
:1014100049E70E94110AC8010E94CE091F910F914D
:101420000895653018F00E94F5090895E62FF0E060
:10143000EE0FFF1FE05DFC4F408311820895653081
:1014400010F4403118F00E94F5090895E42FF0E0FF
:10145000E053FD4F40810E94110A08950F931F939E
:101460008C0160E04EE50E94110AC80161E04FE383
:101470000E94110AC80163E044E50E94110AC801F4
:1014800064E049E70E94110AC8010E94CE091F9139
:101490000F9108950F931F938C0160E049E30E9420
:1014A000110AC80161E047E70E94110AC80163E020
:1014B00048E30E94110AC80164E04BE50E94110A4A
:1014C000C8010E94CE091F910F9108950F931F9399
:1014D0008C0160E049E30E94110AC80161E047E71E
:1014E0000E94110AC80163E048E30E94110AC80182
:1014F00064E046E00E94110AC8010E94CE091F91D3
:101500000F9108950F931F938C0160E040E00E94BB
:10151000110AC80161E040E00E94110AC80163E0BD
:1015200040E00E94110AC80164E040E00E94110AF4
:10153000C8010E94CE091F910F9108950F931F9328
:101540008C0160E043E70E94110AC80161E049E3B1
:101550000E94110AC80163E040E00E94110AC8011C
:1015600064E040E00E94110AC8010E94CE091F9168
:101570000F9108950F931F938C0160E04EE30E943A
:10158000110AC80161E043E70E94110AC80163E043
:1015900040E00E94110AC80164E040E00E94110A84
:1015A000C8010E94CE091F910F9108950F931F93B8
:1015B0008C0160E040E40E94110AC80161E040E44F
:1015C0000E94110AC80163E040E40E94110AC801A8
:1015D00064E040E40E94110AC8010E94CE091F91F4
:1015E0000F910895EF92FF920F931F93CF93DF9384
:1015F0007C01EB01CB0189519C4F875F9A4218F027
:10160000C7010E94F509D7FF05C0D095C195DF4FEE
:1016100001E003C0209719F000E014E007C0C70103
:1016200064E040E00E941F0A13E025C0212F115002
:10163000CE016AE070E00E942726482FC701622F82
:101640000E941F0A123009F411E0CE016AE070E036
:101650000E942726EB016115710541F7612F0023D8
:1016600051F01150C70140E404C0612F1150C7016F
:1016700040E00E94110A17FFF8CFC7010E94CE096F
:10168000DF91CF911F910F91FF90EF9008951F93DD
:10169000FC01162F603188F460838EEC93E060913A
:1016A0002F030E94B617106E8EEC93E0612F0E94FC
:1016B00038188EEC93E00E947B181F910895CF920A
:1016C000DF92EF92FF920F931F93CF93DF938C01E2
:1016D000F62EEA0184E086170CF453C092E06917F5
:1016E00009F44FC0C80160E040E00E94110AC8013F
:1016F00061E040E00E94110AC80163E040E00E94FE
:10170000110AC80164E040E00E94110AF7FE31C0EE
:10171000C80160E040E40E94110AC8010E94CE099D
:101720006E01EE24FF24C701B6010E94B21DC1E084
:10173000D0E0C230D105C1F0C330D10511F461E071
:1017400003C0CE018150682FC80140E00E94110AF9
:10175000C8016C2F40E40E94110AC8010E94CE0902
:10176000C701B6010E94B21D2196C530D10509F707
:1017700008C0C8016F2D40E40E94110AC8010E94F0
:10178000CE09DF91CF911F910F91FF90EF90DF90E5
:10179000CF9008956F927F928F929F92BF92CF9237
:1017A000DF92EF92FF920F931F93DF93CF9300D0BE
:1017B00000D00F92CDB7DEB76C01AB018E010F5F89
:1017C0001F4FB8010E948A09C6010E94820ABB24E9
:1017D000EE24FF24380182E0E816F10409F456C033
:1017E000E114F104A1F4C60160E040E10E94110A95
:1017F000C6010E94CE096FE070E080E090E00E9498
:10180000B21D00EE12E043018E0C9F1C23C0E3E0EA
:10181000EE16F10419F461E070E003C0B701615005
:101820007040F301E60FF71F408142704B29C6015B
:101830000E94110AC6016E2D40E10E94110AC601E4
:101840000E94CE096FE070E080E090E00E94B21D3F
:10185000BB24D7CFF8018081F40190818923B82A75
:10186000F80141814B29C6016E2D0E94110AC60163
:101870000E94CE096FE070E080E090E00E94B21D0F
:101880000F5F1F4FF2E0063E1F0721F70894E11C8F
:10189000F11C85E0E816F10409F09DCF8D8182707E
:1018A000B82AE0E8BE2AC60164E04B2D0E94110A66
:1018B000C6010E94CE090F900F900F900F900F90CD
:1018C000CF91DF911F910F91FF90EF90DF90CF901C
:1018D000BF909F908F907F906F900895AF92BF922E
:1018E000CF92DF92EF92FF920F931F93CF93DF93EC
:1018F000EC01262FCA016CE070E00E941326CC2474
:10190000DD24A22EBB247B010027F7FC0095102FBD
:10191000B1C0CE0160E041E00E94110ACE010E94F8
:10192000CE09C801B7010E94B21DCE0160E040E0BF
:101930000E94110ACE0161E041E00E94110ACE012D
:101940000E94CE09C801B7010E94B21DCE0161E01C
:1019500040E00E94110ACE0163E041E00E94110ABA
:10196000CE010E94CE09C801B7010E94B21DCE016E
:1019700063E040E00E94110ACE0164E041E00E9471
:10198000110ACE010E94CE09C801B7010E94B21D02
:10199000CE0164E042E00E94110ACE010E94CE090D
:1019A000C801B7010E94B21DCE0164E044E00E946C
:1019B000110ACE010E94CE09C801B7010E94B21DD2
:1019C000CE0164E048E00E94110ACE010E94CE09D7
:1019D000C801B7010E94B21DCE0164E040E00E9440
:1019E000110ACE0163E048E00E94110ACE010E9474
:1019F000CE09C801B7010E94B21DCE0163E040E0EC
:101A00000E94110ACE0161E048E00E94110ACE0155
:101A10000E94CE09C801B7010E94B21DCE0161E04B
:101A200040E00E94110ACE0160E048E00E94110AE5
:101A3000CE010E94CE09C801B7010E94B21DCE019D
:101A400060E040E10E94110ACE010E94CE09C80167
:101A5000B7010E94B21DCE0160E040E20E94110A6F
:101A6000CE010E94CE09C801B7010E94B21D0894A0
:101A7000C11CD11CCA14DB040CF44BCFDF91CF91F5
:101A80001F910F91FF90EF90DF90CF90BF90AF909C
:101A900008950F931F938C0160E04FE70E94110A95
:101AA000C80161E040E00E94110AC80163E040E023
:101AB0000E94110AC80164E040E00E94110AC801B6
:101AC0000E94CE096AEF70E080E090E00E94B21DB3
:101AD000C80160E040E00E94110AC80161E04FE7E0
:101AE0000E94110AC80163E040E00E94110AC80187
:101AF00064E040E00E94110AC8010E94CE096AEF2A
:101B000070E080E090E00E94B21DC80160E040E01B
:101B10000E94110AC80161E040E00E94110AC80158
:101B200063E04FE70E94110AC80164E040E00E94B0
:101B3000110AC8010E94CE096AEF70E080E090E0CF
:101B40000E94B21DC80160E040E00E94110AC80175
:101B500061E040E00E94110AC80163E040E00E9499
:101B6000110AC80164E04FE70E94110AC8010E94EF
:101B7000CE096AEF70E080E090E00E94B21D1F91F4
:101B80000F9108950F931F9360932F030EEC13E0B2
:101B9000C8010E947F18C80160912F030E94B617E8
:101BA000C80161E20E943818C8010E947B18C80170
:101BB00060912F030E94B617C80161E80E9438188F
:101BC000C8010E947B18C80160912F030E94B617BC
:101BD000C8016FEE0E943818C8010E947B181F913F
:101BE0000F9108950F931F9370937F0360937E036B
:101BF00050938103409380033093830320938203A7
:101C000010938503009384031F910F910895089505
:101C100080E493E00E949D1708950F931F93809195
:101C20008203909183030E94090907E614E0C8012A
:101C300066E071E00E94B521C8016FE071E00E948A
:101C4000B5211F910F9108950F931F9307E614E09C
:101C5000C80161E171E00E94B521809182039091F9
:101C600083030E94A906682FC8014AE050E00E9441
:101C70005021C8016FE071E00E94B5211F910F91C2
:101C8000089580E493E00E9495160E94B200BC0182
:101C90008F3F910531F028F087E694E06DE171E027
:101CA0000AC080918203909183030E94DB0687E63D
:101CB00094E06EE271E00E94B52187E694E06FE067
:101CC00071E00E94B52108950F931F9307E614E079
:101CD000C80169E371E00E94B5218091820390916F
:101CE00083030E94A606682FC80170E04AE050E016
:101CF0000E94A221C8016FE071E00E94B5211F91EE
:101D00000F91089580E493E00E9495160E94B2001E
:101D10008230910528F087E694E065E471E00FC019
:101D2000209182033091830360E0892B09F061E008
:101D3000C9010E94E20687E694E066E571E00E9430
:101D4000B52187E694E06FE071E00E94B521089527
:101D50000F931F9307E614E0C80161E671E00E944B
:101D6000B52180917E0390917F030E940414682F17
:101D7000C8014AE050E00E945021C8016FE071E0C4
:101D80000E94B5211F910F91089580E493E00E9475
:101D900095160E94B200BC01009719F080319105A0
:101DA0002CF087E694E06BE671E00AC08091820334
:101DB000909183030E94E90687E694E06AE771E068
:101DC0000E94B52187E694E06FE071E00E94B521A2
:101DD00008950F931F9307E614E0C80163E871E0CC
:101DE0000E94B52180917E0390917F030E94FA1397
:101DF000682FC8014AE050E00E945021C8016FE0FE
:101E000071E00E94B5211F910F91089580E493E045
:101E10000E9495160E94B200BC0101978F3F910568
:101E200028F087E694E060E971E00AC080918203BF
:101E3000909183030E940F0787E694E062EA71E0C5
:101E40000E94B52187E694E06FE071E00E94B52121
:101E500008950F931F9307E614E0C8016EEA71E03E
:101E60000E94B52180918003909181030E9487098F
:101E7000682FC8014AE050E00E945021C8016FE07D
:101E800071E00E94B5211F910F91089580E493E0C5
:101E90000E9495160E94B200682F803128F087E6D4
:101EA00094E06DEB71E00AC080918203909183030E
:101EB0000E94FC0687E694E061ED71E00E94B52186
:101EC00087E694E06FE071E00E94B5210895EF92FB
:101ED000FF920F931F93DF93CF93CDB7DEB7609739
:101EE0000FB6F894DEBF0FBECDBF80917E039091F8
:101EF0007F038E010F5F1F4FB8010E94CC1387E64E
:101F000094E06FED71E00E94B52181E1E82EF12CA3
:101F1000EC0EFD1EF80141915191619171918F017B
:101F200087E694E026E030E00E949C2287E694E079
:101F30006BEE71E00E94B5210E151F0559F787E67B
:101F400094E06FE071E00E94B52160960FB6F894BE
:101F5000DEBF0FBECDBFCF91DF911F910F91FF90DC
:101F6000EF900895EF92FF920F931F93DF93CF931B
:101F7000CDB7DEB760970FB6F894DEBF0FBECDBF0A
:101F80008E010F5F1F4F91E1E92EF12CEC0EFD1E2B
:101F900080E493E00E9495160E94AE00F8016193E0
:101FA0007193819391938F01EE15FF0589F78091CD
:101FB000820390918303BE016F5F7F4F0E942207CF
:101FC00087E694E06DEE71E00E94B52187E694E02B
:101FD0006FE071E00E94B52160960FB6F894DEBF05
:101FE0000FBECDBFCF91DF911F910F91FF90EF906A
:101FF0000895EF92FF920F931F93DF93CF93CDB786
:10200000DEB728970FB6F894DEBF0FBECDBF809124
:102010007E0390917F03BE016F5F7F4F0E948B1301
:1020200007E614E0C80168EF71E00E94B52149811C
:102030005A816B817C81C80126E030E00E949C229D
:102040002BEEE22E21E0F22EC801B7010E94B5214D
:102050004D815E816F817885C80126E030E00E9465
:102060009C22C801B7010E94B521C8016FE071E050
:102070000E94B52128960FB6F894DEBF0FBECDBFE3
:10208000CF91DF911F910F91FF90EF9008950F93E3
:102090001F93DF93CF93CDB7DEB728970FB6F89491
:1020A000DEBF0FBECDBF00E413E0C8010E9495164D
:1020B0000E94AE0069837A838B839C83C8010E944F
:1020C00095160E94AE006D837E838F8398878091E2
:1020D000820390918303BE016F5F7F4F0E9484074C
:1020E00007E614E0C80160E072E00E94B521C80173
:1020F0006FE071E00E94B52128960FB6F894DEBF1C
:102100000FBECDBFCF91DF911F910F910895EF9238
:10211000FF920F931F93DF93CF93CDB7DEB76497F2
:102120000FB6F894DEBF0FBECDBF80917E039091B5
:102130007F0360E070E040E07E010894E11CF11C48
:10214000970100E00E94701587E694E067E072E076
:102150000E94B521870131E1E32EF12CEC0EFD1E2A
:10216000F80141915191619171918F0187E694E05D
:102170002AE030E00E94622187E694E06BEE71E095
:102180000E94B5210E151F0559F787E694E06FE010
:1021900071E00E94B52164960FB6F894DEBF0FBEC1
:1021A000CDBFCF91DF911F910F91FF90EF900895D8
:1021B000AF92BF92CF92DF92EF92FF920F931F9355
:1021C000DF93CF93CDB7DEB764970FB6F894DEBF39
:1021D0000FBECDBF80917E0390917F0360E070E0E1
:1021E00040E07E010894E11CF11C970101E00E948F
:1021F00070155B016C0187E694E06FE072E00E946D
:10220000B521870145E1E42EF12CEC0EFD1EF8010D
:1022100041915191619171918F0187E694E02AE09B
:1022200030E00E94622187E694E06BEE71E00E944C
:10223000B5210E151F0559F787E694E06FE071E0B0
:102240000E94B521D601C50189519C4FAF4FBF4FA8
:102250002091800330918103875F9A42A040B04073
:1022600020F0C9010E94D60A04C0C901B5010E942C
:10227000F20A64960FB6F894DEBF0FBECDBFCF91C1
:10228000DF911F910F91FF90EF90DF90CF90BF9063
:10229000AF900895EF92FF920F931F93DF93CF9328
:1022A00000D000D0CDB7DEB780E090E0A0E0B0E095
:1022B00089839A83AB83BC8380917E0390917F0353
:1022C000BE016F5F7F4F40E020E030E001E00E9400
:1022D00070157B018C0187E694E068E172E00E9452
:1022E000B52149815A816B817C8187E694E026E0A3
:1022F00030E00E949C2287E694E06FE071E00E944B
:10230000B521D801C70189519C4FAF4FBF4F2091D4
:10231000800330918103875F9A42A040B04020F053
:10232000C9010E94D60A04C0C901B7010E94F20A7D
:102330000F900F900F900F90CF91DF911F910F9101
:10234000FF90EF900895EF92FF920F931F9380916B
:102350007E0390917F0360E070E040E020E030E099
:1023600001E00E9470157B018C0187E694E060E239
:1023700072E00E94B52187E694E0B801A7012AE047
:1023800030E00E94622187E694E06FE071E00E94F5
:10239000B521809180039091810320E1E21627E22C
:1023A000F20620E0020720E0120718F00E94D60A89
:1023B00003C0B7010E94CA0B1F910F91FF90EF90CD
:1023C00008950F931F9307E614E0C80166E272E0D8
:1023D0000E94B5216091840370918503C8010E9419
:1023E000B521C8016FE071E00E94B52180918003A2
:1023F000909181030E949E0A1F910F9108950F935F
:102400001F9387E694E00E94251F00E413E0C801B3
:102410006EE272E041EE51E10E944B17C80165E3A4
:1024200072E043EA51E10E944B17C8016AE372E08F
:102430004AE451E10E944B17C80161E472E048EDA3
:1024400050E10E944B17C80169E472E047E850E18F
:102450000E944B17C80160E072E047E450E10E941F
:102460004B17C80160E572E049EF5FE00E944B172F
:10247000C80167E572E042EB5FE00E944B17C801BC
:1024800060E672E047E65FE00E944B17C80169E62C
:1024900072E046E45FE00E944B17C80162E772E019
:1024A00049E25FE00E944B17C8016BE772E046E02B
:1024B0005FE00E944B17C80164E872E049EE5EE0FD
:1024C0000E944B17C8016AE771E045EC5EE00E948C
:1024D0004B17C8016DE872E048EA5EE00E944B17B6
:1024E000C80166E972E042E85EE00E944B17C8014D
:1024F0006FE972E044E65EE00E944B17C80168EAAB
:1025000072E041E45EE00E944B17C80161EB72E0AB
:1025100044E25EE00E944B17C80166E071E04DE0C6
:102520005EE00E944B171F910F91089580E493E0A5
:102530000E94A0160895EF92FF920F93FC01008372
:1025400021836283438385E084838FE08583F092D7
:102550008703E09286038BE897E8A1E8BFE3868BC8
:10256000978BA08FB18F8FE19DEBA1ECBDEB828F9C
:10257000938FA48FB58F80E090E0A0E0B0E08683D9
:102580009783A087B18782879387A487B58783EADB
:102590009BE8ACECB2E486879787A08BB18B8AEB83
:1025A00098E6A0E0B3EC828B938BA48BB58B0F9154
:1025B000FF90EF90089508958F929F92AF92BF92EF
:1025C000CF92DF92EF92FF920F931F93CF93DF93FF
:1025D000EC01FB014A01A484B584C684D784A1140C
:1025E000B104C104D10429F42FEF3FEF4FEF5FEFA7
:1025F0006AC064817581868197810E94D9247B019C
:102600008C01C601B5010E94D9249B01AC01C8010F
:10261000B7010E943E242E893F89488D598D0E9422
:102620008D252A8D3B8D4C8D5D8D0E94D6235B01BF
:102630006C012E813F81488559850E948D25A60118
:1026400095010E948D25A60195010E948D257B0193
:102650008C01C601B5012A853B854C855D850E94AC
:102660008D25A60195010E948D259B01AC01C80115
:10267000B7010E94D6237B018C01C601B5012E85CE
:102680003F85488959890E948D259B01AC01C8016D
:10269000B7010E94D6232A893B894C895D890E9413
:1026A000D62320E030E040E05FE30E94D6230E9482
:1026B000A6249B01AC018114910429F0F401A082AD
:1026C000B182C282D382B901CA01DF91CF911F9139
:1026D0000F91FF90EF90DF90CF90BF90AF909F90C1
:1026E0008F900895CF93DF939C01FB0180819181AE
:1026F000A281B381E9018E8B9F8BA88FB98F8481D2
:102700009581A681B781F901828F938FA48FB58FB0
:10271000DF91CF910895CF93DF93FC01868997894C
:10272000A08DB18DEB0188839983AA83BB83828DB1
:10273000938DA48DB58DFB0184839583A683B78388
:10274000DF91CF910895CF93DF939C01FB018081AE
:102750009181A281B381E9018E839F83A887B98784
:1027600084819581A681B7818A879B87AC87BD8745
:1027700080859185A285B3858E879F87A88BB98B2D
:1027800084859585A685B785F901828B938BA48B6B
:10279000B58BDF91CF910895CF93DF93FC018681B4
:1027A0009781A085B185EB0188839983AA83BB8338
:1027B00082859385A485B5858C839D83AE83BF83F5
:1027C00086859785A089B18988879987AA87BB87DD
:1027D00082899389A489B589FB0184879587A68717
:1027E000B787DF91CF910895FC01662309F46481D6
:1027F00064830895FC0184810895FC01862F815033
:102800008F3008F465830895FC0185810895CF9386
:10281000DF93EC01613039F0613090F0623031F0DB
:102820006330B1F406C08A8160E00CC08A8161E047
:1028300002C08A8160E00E94591E8B8161E006C05F
:102840008A8161E00E94591E8B8160E00E94591EBE
:10285000DF91CF9108950F931F938C01FC0182812A
:1028600060E00E94591EF801838160E00E94591EB9
:10287000F801818160E00E94591EF801808160E0CA
:102880000E94591E1F910F910895CF93DF93EC0181
:1028900064E670E080E090E00E94B21D6C8188EEFA
:1028A00093E070E00E942726CB010E94A91A0E94A3
:1028B000241B8823E1F30E94371B0E94271B2C81D5
:1028C00030E040E050E00E94F425DF91CF91089580
:1028D000BF92CF92DF92EF92FF920F931F938C01E2
:1028E000FC01B48082E38483818160E00E94591EF0
:1028F000F801808161E00E94591EC80160E00E94D9
:10290000071462E370E080E090E00E94B21DC8010D
:102910000E9445146B017C01C8010E942B14F80130
:10292000B48280E0F5EFCF16F1E0DF06F0E0EF06CD
:10293000F0E0FF0608F081E01F910F91FF90EF900B
:10294000DF90CF90BF9008950E94681491E089278E
:1029500008959F92AF92BF92CF92DF92EF92FF9233
:102960000F931F93CF93DF93EC019C8082E38C83C2
:102970008091860390918703009711F00E94820A4C
:10298000888161E00E94591E898161E00E94591E80
:10299000CE0161E00E940714CE010E9445145B0144
:1029A0006C01CE0163E00E940714CE010E94451421
:1029B0007B018C01CE010E942B149C8221E1A21686
:1029C00029E0B20620E0C20620E0D20654F080ECF6
:1029D000A8168DE0B80680E0C80680E0D8067CF531
:1029E0000DC080E199E0A0E0B0E08A199B09AC0934
:1029F000BD09805B9440A040B040A4F58FEBE81681
:102A000085E0F80680E0080780E0180754F02CEA1B
:102A1000E21628E0F20620E0020720E012077CF42C
:102A200050C08EEB95E0A0E0B0E08E199F09A00B9E
:102A3000B10B8E5E9240A040B0400CF442C085E2E3
:102A4000A8168CE2B80680E0C80680E0D80654F0EC
:102A50002CE8A2162CE3B20620E0C20620E0D20643
:102A600094F50DC084E29CE2A0E0B0E08A199B09D5
:102A7000AC09BD0988569041A040B04024F58BEECA
:102A8000E8168BE0F80680E0080780E0180754F0AD
:102A900024E9E21621E1F20620E0020720E0120715
:102AA00094F40DC08AEE9BE0A0E0B0E08E199F097F
:102AB000A00BB10B8A5A9540A040B04024F482E0AC
:102AC00003C081E001C080E0DF91CF911F910F91A1
:102AD000FF90EF90DF90CF90BF90AF909F900895C0
:102AE000AF92BF92CF92DF92EF92FF920F931F931C
:102AF000DF93CF93CDB7DEB764970FB6F894DEBF00
:102B00000FBECDBF7C015B01142F690119821A82AF
:102B10001B821C821D821E821F82188619861A86BD
:102B20001B861C861D861E861F86188A198A1A8A8D
:102B30001B8A1C8AFC01808161E00E94591E0023CF
:102B400029F0F701818161E00E94591E809186037E
:102B500090918703009711F00E94820A62E370E06F
:102B600080E090E00E94B21DF701858180FD02C0E7
:102B700000E01BC0112369F08091860390918703C8
:102B8000009739F060E040E050E00E945F0B01E008
:102B900001C000E0C70160E00E940714C7010E9465
:102BA000451469837A838B839C83F701858181FF38
:102BB0001DC0112381F080918603909187030097B7
:102BC00051F0602F40E050E00E945F0B013011F0A7
:102BD00001E001C003E0C70161E00E940714C701E2
:102BE0000E9445146D837E838F839887F7018581CA
:102BF00083FF1BC0112371F080918603909187039E
:102C0000009741F0602F40E050E00E945F0B0230DF
:102C100009F403E0C70163E00E940714C7010E94A2
:102C200045146D877E878F87988BF701858182FF9A
:102C300018C0112359F08091860390918703009763
:102C400029F0602F40E050E00E945F0BC70162E076
:102C50000E940714C7010E94451469877A878B87F1
:102C60009C87C7010E942B14C701BE016F5F7F4F75
:102C7000A501F70125810E94DC129C01C114D10439
:102C800029F189819A81AB81BC81F601808391838E
:102C9000A283B3838D819E81AF81B8858483958320
:102CA000A683B78389859A85AB85BC858087918704
:102CB000A287B3878D859E85AF85B88984879587E0
:102CC000A687B787608B718B228B338BC901649683
:102CD0000FB6F894DEBF0FBECDBFCF91DF911F912D
:102CE0000F91FF90EF90DF90CF90BF90AF9008953D
:102CF0000F931F938C01FC01828161E00E941A1ED8
:102D0000F801838161E00E941A1EF801818161E06F
:102D10000E941A1EF801808161E00E941A1EC801FB
:102D20000E942B141F910F910895BC01AC01445CCB
:102D30005F4F80E090E06B5F7F4F0E94FD00089541
:102D40002F923F924F925F927F928F929F92AF927B
:102D5000BF92CF92DF92EF92FF920F931F93DF9378
:102D6000CF9300D000D0CDB7DEB78C0108969A8300
:102D7000898395E0292E312C200E311E8CE3482EBC
:102D8000512C400E511E772467C087E694E00E94C4
:102D9000C81FF82ED80117968C91F81609F045C077
:102DA00089819A81B101A2010E94FD005C01009716
:102DB000C1F1F8018281882E9924CC24DD24EE24EF
:102DC000FF2421C0D8010D90BC91A02DAE0DBF1DD8
:102DD000BC83AB83C501BD0148E050E00E94E00028
:102DE000EBE0F0E0EE0EFF1E009751F4AB81BC81EA
:102DF0001996ED91FC911A9709957724739411C057
:102E00000894C11CD11CC814D904E4F2772049F4F9
:102E1000D8011396ED91FC911497309711F0C501EC
:102E20000995F801108613AE17C08F2D992787FDDD
:102E300090950E946426892B79F0D801DB968C91BD
:102E4000823350F4F801E80FF11DF0868F5FF8012E
:102E500083AFE80FF11D108687E694E00E94AC1F57
:102E6000181619060CF491CF872D0F900F900F9024
:102E70000F90CF91DF911F910F91FF90EF90DF9016
:102E8000CF90BF90AF909F908F907F905F904F902A
:102E90003F902F900895AF92BF92CF92DF92EF9222
:102EA000FF920F931F938C016B015A01DC01129664
:102EB0008C91129790E001962BE0E22EF12C8E9DE2
:102EC000B0018F9D700D9E9D700D11248D919C9170
:102ED0000E94401C9C01F8019183808382814BE019
:102EE000849FC0011124820F931FB60148E050E077
:102EF0000E94EE00D80112968C91129790E0FC018E
:102F0000EE9DC001EF9D900DFE9D900D1124ED9161
:102F1000FC911197E80FF91FB286A18612968C9149
:102F200012978F5F12968C931F910F91FF90EF90E5
:102F3000DF90CF90BF90AF9008950F931F938C01B7
:102F4000FC01118210821282148213828AE087832C
:102F500015AE14AEC80105966AEB72E00E94D90066
:102F6000F801108613AE1F910F91089581E08093B0
:102F7000CD036093AA031092CB031092CC03089563
:102F80002091A90330E08091A803281B3109C901D1
:102F900008954091A8038091A903481718F02FEFD6
:102FA0003FEF0AC0E42FF0E0E857FC4F8081282F64
:102FB00030E04F5F4093A803C9010895E091A80352
:102FC0008091A903E81718F0EFEFFFEF06C0F0E0DB
:102FD000E857FC4F8081E82FF0E0CF010895089575
:102FE0001092D1031092D00388EE93E0A0E0B0E0FD
:102FF0008093D2039093D303A093D403B093D503CB
:103000008BEE92E09093CF038093CE030895CF92FE
:10301000DF92EF92FF920F931F93CF93DF937C0188
:103020006B018A018091CD038823A1F0C0E0D0E03C
:103030000DC0D701ED91FC91D601AC0FBD1F0190E1
:10304000F081E02DC7016C9109952196C017D10739
:1030500080F304C0CB01642F0E94DF18C801DF9108
:10306000CF911F910F91FF90EF90DF90CF90089537
:10307000DF93CF930F92CDB7DEB7FC0169838091C8
:10308000CD038823C9F08091CC03803238F081E0F1
:1030900090E09383828320E030E015C08091CB03E1
:1030A000E82FF0E0E555FC4F998190838F5F809386
:1030B000CB038093CC0305C0CE01019661E00E9452
:1030C000DF1821E030E0C9010F90CF91DF91089522
:1030D0000F93062F8091AA036BEA73E04091CC0313
:1030E00021E00E948A181092CB031092CC03109218
:1030F000CD030F91089561E00E9468180895109221
:10310000A8031092A9031092CB031092CC030E9443
:103110008B1A08950F931F93582F122F413210F0DE
:1031200081E04AC08091DA038823E1F782E080934E
:10313000DA030093DC038FEF8093470410920204BC
:1031400040930304A2EEB3E0FB0102C081918D9392
:103150008E2F861B8417D0F31092DB038091DB0344
:10316000550F852B8093DB038091DD03813041F483
:103170001092DD038091DB038093BB0085EC01C0DE
:1031800085EE8093BC00112321F08091DA03823018
:10319000E1F3809147048F3F11F480E00DC08091EE
:1031A0004704803211F482E007C0809147048033E5
:1031B00011F084E001C083E01F910F910895482F22
:1031C000613210F081E008958091DA03843011F0CB
:1031D00082E0089560932504A4E0B4E0842F9C016C
:1031E000F90102C081918D938E2F841B8617D0F335
:1031F00080E008951F920F920FB60F9211242F9323
:103200003F934F935F936F937F938F939F93AF936E
:10321000BF93EF93FF938091B90090E0887F907007
:103220008036910509F4F2C081369105CCF58832DB
:10323000910509F47BC089329105B4F48031910580
:1032400009F46FC0813191053CF4009709F447C13E
:10325000089709F04FC165C08831910509F466C02F
:10326000809709F047C182C08034910509F4A4C059
:103270008134910544F48033910509F482C0C897E4
:1032800009F038C189C08035910509F489C08835B5
:10329000910509F496C08834910509F02BC1AEC0A0
:1032A0008839910509F413C189399105ECF48837FF
:1032B000910509F4ABC0893791054CF48836910526
:1032C00009F4A4C08037910509F014C19FC0883863
:1032D000910509F4FCC08039910509F49DC080383E
:1032E000910509F007C198C0803B910509F4C6C05B
:1032F000813B91054CF4803A910509F49FC0883ACE
:10330000910509F0F7C0BAC0803C910509F4E3C00B
:10331000883C910509F4DFC0883B910509F0EAC0BB
:10332000C2C08091DB038093BB00CFC090910204A8
:1033300080910304981768F490910204E92FF0E05B
:10334000EE51FC4F80818093BB009F5F90930204FD
:10335000BCC08091DC03882309F44BC085ED8093C9
:10336000BC008091BC0084FDFCCFC2C080E2809391
:10337000470485ED8093BC008091BC0084FDFCCFA8
:10338000B7C080E38093470485ED8093BC008091B3
:10339000BC0084FDFCCFACC088E3809347049BC095
:1033A000809102049091BB00E82FF0E0EE51FC4FB9
:1033B00090838F5F809302049091020480910304B4
:1033C00082C0809102049091BB00E82FF0E0EE51A2
:1033D000FC4F90838F5F809302048091DC038823ED
:1033E00041F085ED8093BC008091BC0084FDFCCF52
:1033F0007FC081E08093DD0384EA6EC085ED809319
:10340000BC008091BC0084FDFCCF72C083E080933F
:10341000DA031092460459C080914604803208F0C5
:1034200056C0809146049091BB00E82FF0E0EA5D21
:10343000FB4F90838F5F8093460447C08091460482
:10344000803230F4E0914604F0E0EA5DFB4F1082F8
:1034500085ED8093BC008091BC0084FDFCCF109270
:10346000DA0360914604E091E003F091E10386E223
:1034700094E070E00995109246042DC084E080939A
:10348000DA031092240410922504E091DE03F091F7
:10349000DF03099580912504882329F481E0809336
:1034A00025041092040490912404E92FF0E0EC5FCD
:1034B000FB4F80818093BB009F5F90932404909189
:1034C000240480912504981710F485EC01C085E848
:1034D0008093BC000FC085EC8093BC0009C01092A3
:1034E000470485ED8093BC008091BC0084FDFCCF37
:1034F0001092DA03FF91EF91BF91AF919F918F915D
:103500007F916F915F914F913F912F910F900FBEDF
:103510000F901F9018951092DA0381E08093DC03DE
:103520001092DD0382E161E00E94591E83E161E0B7
:103530000E94591EE9EBF0E080818E7F80838081BC
:103540008D7F808388E48093B80085E48093BC00FD
:1035500008959C018A30910508F475C010924B04BF
:1035600010924A04109249041092480410924E049A
:1035700010924F041092500410925104109256046D
:1035800080918000809359048091810080935A0437
:103590001092810010928000109285001092840099
:1035A00081E086BB10926F008091B0008093570439
:1035B0008091B100809358041092B10082E0809312
:1035C000B000C90187709070892B51F443E03695A3
:1035D00027954A95E1F78CE78093B30087E018C000
:1035E000C90183709070892B31F4369527953695F3
:1035F000279589EF05C020FD07C0369527958CE7F4
:103600008093B30086E004C08CE78093B30085E02C
:1036100080935B0482E087BB1092B20030934D042C
:1036200020934C042FB7F89492E093BD80915B04F3
:103630008093B100909370008BE08150F1F787E0A8
:10364000809381002FBF08958091560408958FB70D
:10365000F8942091520430915304409154045091B5
:103660005504109256048FBFB901CA010895E1EBC9
:10367000F0E0108210927000809157048093B000A7
:10368000809158048083E1E8F0E010828091590431
:103690008093800080915A04808308951F920F9236
:1036A0000FB60F921124EF92FF920F931F932F9357
:1036B0003F934F935F936F937F938F939F93AF93BA
:1036C000BF932091840030918500B09B0BC081E0B6
:1036D00086BB8091480490914904019690934904D7
:1036E0008093480460914A0470914B046F5F7F4F50
:1036F00080914C0490914D0468177907A8F11092BD
:103700004B0410924A048091480490914904A0E02F
:10371000B0E0DC019927882740E050E0820F931F3A
:10372000A41FB51F20914E0430914F0440915004C6
:10373000509151047C018D01E21AF30A040B150B20
:10374000E0925204F09253040093540410935504F1
:1037500080934E0490934F04A0935004B09351046F
:1037600081E08093560404C070934B0460934A0434
:10377000BF91AF919F918F917F916F915F914F9189
:103780003F912F911F910F91FF90EF900F900FBEDF
:103790000F901F901895F999FECF72BD61BDF89AF0
:1037A00080B50895F999FECF1FBA72BD61BD40BDC5
:1037B0000FB6F894FA9AF99A0FBE0895411551057B
:1037C00029F480917A008F7780937A006A307105AE
:1037D000B9F063FD02C0E8E001C0E8E2862F87701F
:1037E000E82B88E190E00FB6F894A89580936000EC
:1037F0000FBEE09360008091600080648093600061
:10380000232BA1F483B7817F846083BFF89483B7AF
:10381000816083BF85B7806685BF8F7D85BF7894C3
:10382000889583B78E7F83BF78940EC083B7817FDE
:10383000846083BFF89483B7816083BF7894889550
:1038400083B78E7F83BF7894452B29F480917A00CB
:10385000806880937A0008951F920F920FB60F929E
:1038600011248F9388E10FB6F89480936000109232
:1038700060000FBE8F910F900FBE0F901F90189594
:103880006F927F928F929F92AF92BF92CF92DF9270
:10389000EF92FF920F931F93CF93DF938C010097CA
:1038A00029F4CB010E949F228C01BBC08EEFE82E31
:1038B0008FEFF82EE00EF11E4801860E971E8E1433
:1038C0009F0408F4ACC0D7014D915C911197461745
:1038D0005707B8F04530510508F4A3C0CA01049752
:1038E0008617970708F49DC042505040461B570B5F
:1038F000F401419351936D937C93CF010E943C233B
:1039000090C05B01A41AB50A3801640E751EA0911F
:103910000B05B0910C05CC24DD24E0E0F0E047C0BD
:10392000A615B705A9F5CD91DC911197CE010296A8
:103930008A159B0568F1CE018A199B090296129699
:103940002C91129713963C91059758F0F40122831D
:103950003383CA19DB09D183C083D7016D937C936C
:1039600009C04E5F5F4F4C0F5D1FF70151834083CD
:10397000C901FC01C114D10431F0D6011396FC93A6
:10398000EE9312974EC0F0930C05E0930B0549C0DF
:103990008D919C911197E817F90708F4FC016D01CE
:1039A00012968C91129713969C919C01D9011097B5
:1039B00009F0B6CF8091090590910A058615970503
:1039C000E9F4E617F707D0F42091CE023091CF0248
:1039D0002115310541F42DB73EB78091CA0290916F
:1039E000CB02281B390B82169306C8F490920A0565
:1039F00080920905F7017183608313C0CB010E9497
:103A00009F22EC01009759F0D7014D915C91B801CC
:103A10000E94D000C8010E943C238E0102C000E039
:103A200010E0C801DF91CF911F910F91FF90EF90AF
:103A3000DF90CF90BF90AF909F908F907F906F90CE
:103A400008951F920F920FB60F9211242F933F9358
:103A50008F939F93AF93BF9380916204909163047F
:103A6000A0916404B0916504309166040196A11D93
:103A7000B11D232F2D5F2D3720F02D570196A11D4D
:103A8000B11D209366048093620490936304A09315
:103A90006404B093650480915E0490915F04A091EA
:103AA0006004B09161040196A11DB11D80935E0474
:103AB00090935F04A0936004B0936104BF91AF91B1
:103AC0009F918F913F912F910F900FBE0F901F905C
:103AD00018958FB7F8942091620430916304409157
:103AE0006404509165048FBFB901CA0108957894A8
:103AF00084B5826084BD84B5816084BD85B58260F3
:103B000085BD85B5816085BDEEE6F0E08081816090
:103B10008083E1E8F0E01082808182608083808190
:103B200081608083E0E8F0E0808181608083E1EB68
:103B3000F0E0808184608083E0EBF0E08081816050
:103B40008083EAE7F0E08081846080838081826006
:103B500080838081816080838081806880831092EF
:103B6000C1000895EF92FF920F931F93CF93DF93BD
:103B70007B018C013FB7F89480915E0490915F04C3
:103B8000A0916004B091610426B5A89B05C02F3FA9
:103B900019F00196A11DB11D3FBFBA2FA92F982F73
:103BA0008827820F911DA11DB11D52E0880F991F1A
:103BB000AA1FBB1F5A95D1F7EC0130C00E94D42335
:103BC0003FB7F89480915E0490915F04A0916004E7
:103BD000B091610426B5A89B05C02F3F19F001964E
:103BE000A11DB11D3FBFBA2FA92F982F8827820F83
:103BF000911DA11DB11D32E0880F991FAA1FBB1F87
:103C00003A95D1F78C1B9D0B885E9340B8F20894CF
:103C1000E108F10801091109C851DC4FE114F10470
:103C20000105110559F6DF91CF911F910F91FF907A
:103C3000EF900895CF93DF93482F50E0CA01865646
:103C40009F4FFC0134914A575F4FFA0184918823BA
:103C500069F190E0880F991FFC01E859FF4FA59189
:103C6000B491FC01EE58FF4FC591D491662351F4F5
:103C70002FB7F8948C91932F909589238C938881FA
:103C800089230BC0623061F42FB7F8948C91932F85
:103C9000909589238C938881832B88832FBF06C0BE
:103CA0009FB7F8948C91832B8C939FBFDF91CF911A
:103CB0000895482F50E0CA0182559F4FFC0124917E
:103CC000CA0186569F4FFC0194914A575F4FFA01F3
:103CD0003491332309F440C0222351F1233071F091
:103CE000243028F42130A1F0223011F514C0263000
:103CF000B1F02730C1F02430D9F404C080918000A5
:103D00008F7703C0809180008F7D8093800010C0EA
:103D100084B58F7702C084B58F7D84BD09C0809142
:103D2000B0008F7703C08091B0008F7D8093B0008A
:103D3000E32FF0E0EE0FFF1FEE58FF4FA591B49177
:103D40002FB7F894662321F48C919095892302C0B3
:103D50008C91892B8C932FBF089508951F920F92F9
:103D60000FB60F9211242F933F934F938F939F93EE
:103D7000EF93FF938091C00082FD19C04091C6006F
:103D800080918504282F30E02F5F3F4F2F733070D4
:103D90008091860490E02817390759F0E091850456
:103DA000F0E0E959FB4F42A32093850402C08091C3
:103DB000C600FF91EF919F918F914F913F912F916D
:103DC0000F900FBE0F901F90189580918504209141
:103DD000860490E0805C9F4F821B91098F739070E6
:103DE000892B11F00E94AD1E08951F920F920FB6FD
:103DF0000F9211242F938F939F93EF93FF939091A2
:103E0000870480918804981731F48091C1008F7DD8
:103E10008093C10010C0E0918804F0E0E753FB4FAD
:103E200020818091880490E001968F739070809338
:103E300088042093C600FF91EF919F918F912F915D
:103E40000F900FBE0F901F901895AF92BF92DF9208
:103E5000EF92FF920F931F93CF93DF93EC017A01C0
:103E60008B01DD24403081EE580780E0680780E058
:103E7000780711F0DD24D39491E0A92EB12CE889C4
:103E8000F989DD2069F0C5010C8C02C0880F991FEB
:103E90000A94E2F7808360E079E08DE390E005C06A
:103EA000108260E874E88EE190E0A80197010E941A
:103EB0003A2621503040404050405695479537951E
:103EC000279580E12030380720F0DD2011F0DD2437
:103ED000D6CFEC85FD853083EE85FF8520831D8E52
:103EE000EA89FB89408121E030E0C901088C02C0E9
:103EF000880F991F0A94E2F7482B4083EA89FB89CF
:103F00004081C901098C02C0880F991F0A94E2F709
:103F1000482B4083EA89FB894081C9010A8C02C091
:103F2000880F991F0A94E2F7482B4083EA89FB899E
:103F300080810B8C02C0220F331F0A94E2F7209578
:103F400028232083DF91CF911F910F91FF90EF9055
:103F5000DF90BF90AF900895FC01268D878D30E0F3
:103F6000205C3F4F281B31092F733070C901089521
:103F7000FC01968D878D981719F42FEF3FEF06C03F
:103F8000878DE80FF11D82A1282F30E0C901089527
:103F9000DC015E969C915E975F968C915F97981777
:103FA00019F42FEF3FEF10C05F968C915F97FD01E2
:103FB000E80FF11D92A15F968C915F978F5F8F73D1
:103FC0005F968C93292F30E0C9010895DC015D963E
:103FD0008C915D97882339F05096ED91FC91519723
:103FE000808186FFF9CF5D961C920895DC01909642
:103FF0008C919097282F30E02F5F3F4F2F733070B8
:1040000091968C91919790E028173907C9F3909673
:104010008C919097FD01E80FF11DEE59FF4F6083E1
:1040200090962C9390975296ED91FC915397208106
:1040300081E090E05B960C905B9702C0880F991F1F
:104040000A94E2F7282B208381E05D968C935D979C
:104050005096ED91FC91519780818064808381E03E
:1040600090E0089510926A041092690488EE93E03B
:10407000A0E0B0E080936B0490936C04A0936D0477
:10408000B0936E048BEF92E0909368048093670482
:10409000109288048091880480938704109286048B
:1040A000809186048093850485EC90E0909374045D
:1040B0008093730484EC90E090937604809375046D
:1040C00080EC90E0909378048093770481EC90E00A
:1040D00090937A048093790482EC90E090937C042E
:1040E00080937B0486EC90E090937E0480937D0423
:1040F00084E080937F0483E08093800487E0809352
:10410000810485E08093820481E080938304089594
:10411000CF93DF930E94771D0E941E06C5EEDEE15D
:104120000E94B0052097E1F30E94E51EF9CFCF92DF
:10413000DF92EF92FF920F931F93CF93DF937C0157
:104140006B018A01C0E0D0E00FC0D6016D916D0116
:10415000D701ED91FC910190F081E02DC701099507
:10416000C80FD91F015010400115110571F7CE017C
:10417000DF91CF911F910F91FF90EF90DF90CF9043
:104180000895CF93DF93EC016115710519F420E0D8
:1041900030E00FC0DB010D900020E9F71197A61B5E
:1041A000B70BE881F9810280F381E02DAD0109951B
:1041B0009C01C901DF91CF9108954F925F927F9248
:1041C0008F929F92AF92BF92CF92DF92EF92FF9227
:1041D0000F931F93DF93CF93CDB7DEB7A1970FB6A1
:1041E000F894DEBF0FBECDBF2C01742ECB01223060
:1041F00008F42AE019A231E2C32ED12CCC0EDD1E28
:10420000822E9924AA24BB24672D752FA501940121
:104210000E943A2679018A01C801B701A5019401DB
:104220000E94F425472D461B0894C108D1084A3046
:1042300014F4405D01C0495CF6014083E114F104CF
:104240000105110521F07E2C5F2DC801DDCFC201D3
:10425000B6010E94C120A1960FB6F894DEBF0FBE32
:10426000CDBFCF91DF911F910F91FF90EF90DF9025
:10427000CF90BF90AF909F908F907F905F904F9026
:104280000895DC012115310541F4ED91FC91019077
:10429000F081E02D642F099508950E94DD20089596
:1042A000EF92FF920F931F939A01E62EFF2400E0F6
:1042B00010E0B801A7010E9441211F910F91FF90CA
:1042C000EF900895CF92DF92EF92FF920F931F939A
:1042D000CF93DF93EC016A017B012115310541F495
:1042E000E881F9810190F081E02D642F09951FC0CC
:1042F0002A303105D1F477FF17C0E881F9810190A8
:10430000F081E02D6DE209958C0144275527BA0113
:104310004C195D096E097F09CE012AE00E94DD205B
:104320009801280F391F04C02AE00E94DD209C015B
:10433000C901DF91CF911F910F91FF90EF90DF9016
:10434000CF900895EF92FF920F931F937B019A01F4
:104350000027F7FC0095102FB801A7010E946221E9
:104360001F910F91FF90EF9008950E94C120089532
:104370007F928F929F92AF92BF92CF92DF92EF92F5
:10438000FF920F931F93CF93DF934C017A018B0120
:10439000722ECB01BA01A80197010E94F025882353
:1043A00021F0C4016CEB72E021C0C0E0D0E0570105
:1043B0006801E894D7F8C601B5012FEF3FEF4FE74A
:1043C0005FE70E94F025882351F4C601B5012FEF65
:1043D0003FEF4FE75FE70E943A24181614F0C1E060
:1043E000D0E0219739F0C40160EC72E00E94C12056
:1043F000EC0193C0C801B7012FEF3FEF4FE75FE437
:104400000E948925181654F0C801B7012FEF3FEF1D
:104410004FE75FEC0E943A24882324F4C40164EC43
:1044200072E0E4CFC801B70120E030E040E050E0A6
:104430000E943A2487FD03C0C0E0D0E00EC0D40142
:10444000ED91FC910190F081E02DC4016DE20995A0
:10445000EC0117FB109517F9109520E030E040E0D3
:104460005FE3DD240BC0CA01B90120E030E040E287
:1044700051E40E943E249B01AC01D394D71498F3DD
:10448000C801B7010E94D6235B016C010E94AB24D6
:104490007B018C01C401B801A7012AE030E00E9431
:1044A0004121C80FD91F772039F0C40168EC72E0B0
:1044B0000E94C120C80FD91FC801B7010E94D7248C
:1044C0009B01AC01C601B5010E94D52324C020E0A8
:1044D00030E040E251E40E948D257B018C010E9476
:1044E000A6245B016C01CC24B7FCC094DC2CC40175
:1044F000B601A5012AE030E00E946221C80FD91F51
:10450000C601B5010E94D9249B01AC01C801B701C5
:104510000E94D5237A947720D1F6CE01DF91CF91F6
:104520001F910F91FF90EF90DF90CF90BF90AF90D1
:104530009F908F907F9008950E94B82108950F93C7
:104540001F93CF93DF93BC018230910510F462E09A
:1045500070E0E0910B05F0910C05A0E0B0E040E0C8
:1045600050E024C08081918186179707D0F086178C
:10457000970771F482819381109729F013969C9389
:104580008E9312972CC090930C0580930B0527C037
:104590004115510519F08417950718F4EF018D01A5
:1045A000AC01DF01828193819C01F9013097D1F642
:1045B00041155105F9F0CA01861B970B843091050E
:1045C00080F48A819B810115110521F0F801938304
:1045D000828304C090930C0580930B05FE013296F4
:1045E00045C0FE01E80FF91F61937193029799830B
:1045F00088833CC08091090590910A05892B41F47C
:104600008091CC029091CD0290930A058093090588
:104610004091CE025091CF024115510541F44DB762
:104620005EB78091CA029091CB02481B590B209132
:10463000090530910A0524173507B0F4CA01821B19
:10464000930B8617970780F0AB014E5F5F4F84177F
:10465000950750F0420F531F50930A0540930905E8
:10466000F9016193719302C0E0E0F0E0CF01DF91C6
:10467000CF911F910F910895CF93DF939C010097E5
:1046800009F48FC0EC0122971B821A8260910B05FE
:1046900070910C056115710581F488819981820FF3
:1046A000931F2091090530910A052817390739F51C
:1046B000D0930A05C093090574C0DB0140E050E0C7
:1046C000AC17BD0708F1BB83AA83FE01219131918C
:1046D000E20FF31FAE17BF0779F48D919C911197EC
:1046E000280F391F2E5F3F4F3983288312968D91F3
:1046F0009C9113979B838A834115510571F4D09344
:104700000C05C0930B054DC012968D919C9113978B
:10471000AD01009711F0DC01D3CFDA011396DC93E1
:10472000CE931297FA0121913191E20FF31FCE1728
:10473000DF0769F488819981280F391F2E5F3F4F69
:10474000FA01318320838A819B8193838283E0E015
:10475000F0E0DB0112968D919C911397009719F070
:10476000BC01FD01F6CFAB014E5F5F4FDB018D91C8
:104770009C91840F951F2091090530910A052817F7
:10478000390779F4309729F410920C0510920B0533
:1047900002C0138212824250504050930A05409347
:1047A0000905DF91CF91089508955058BB27AA2796
:1047B0000ED075C166D130F06BD120F031F49F3F3F
:1047C00011F41EF45BC10EF4E095E7FB51C1E92F33
:1047D00077D180F3BA17620773078407950718F03B
:1047E00071F49EF58FC10EF4E0950B2EBA2FA02D1B
:1047F0000B01B90190010C01CA01A0011124FF278E
:10480000591B99F0593F50F4503E68F11A16F04088
:10481000A22F232F342F4427585FF3CF4695379587
:104820002795A795F0405395C9F77EF41F16BA0B4C
:10483000620B730B840BBAF09150A1F0FF0FBB1FFA
:10484000661F771F881FC2F70EC0BA0F621F731F43
:10485000841F48F4879577956795B795F7959E3FA0
:1048600008F0B3CF9395880F08F09927EE0F97952E
:1048700087950895D9D008F481E008950CD00FC130
:1048800007D140F0FED030F021F45F3F19F0F0C0C6
:10489000511139C1F3C014D198F39923C9F35523A9
:1048A000B1F3951B550BBB27AA2762177307840723
:1048B00038F09F5F5F4F220F331F441FAA1FA9F3D9
:1048C00033D00E2E3AF0E0E830D091505040E695CB
:1048D000001CCAF729D0FE2F27D0660F771F881F2C
:1048E000BB1F261737074807AB07B0E809F0BB0B1B
:1048F000802DBF01FF2793585F4F2AF09E3F51053F
:1049000068F0B6C000C15F3FECF3983EDCF38695DB
:1049100077956795B795F7959F5FC9F7880F911DB4
:104920009695879597F90895E1E0660F771F881FA0
:10493000BB1F621773078407BA0720F0621B730B53
:10494000840BBA0BEE1F88F7E095089504D06894A5
:10495000B111D9C00895BCD088F09F5790F0B92FFD
:104960009927B751A0F0D1F0660F771F881F991FC4
:104970001AF0BA95C9F712C0B13081F0C3D0B1E0D6
:104980000895C0C0672F782F8827B85F39F0B93FE6
:10499000CCF3869577956795B395D9F73EF49095C6
:1049A0008095709561957F4F8F4F9F4F0895E89444
:1049B00009C097FB3EF490958095709561957F4F67
:1049C0008F4F9F4F9923A9F0F92F96E9BB27939515
:1049D000F695879577956795B795F111F8CFFAF425
:1049E000BB0F11F460FF1BC06F5F7F4F8F4F9F4F56
:1049F00016C0882311F096E911C0772321F09EE8B4
:104A0000872F762F05C0662371F096E8862F70E019
:104A100060E02AF09A95660F771F881FDAF7880FF3
:104A20009695879597F90895990F0008550FAA0B49
:104A3000E0E8FEEF16161706E807F907C0F01216B1
:104A40001306E407F50798F0621B730B840B950BB4
:104A500039F40A2661F0232B242B252B21F4089509
:104A60000A2609F4A140A6958FEF811D811D0895A6
:104A700097F99F6780E870E060E008959FEF80EC11
:104A8000089500240A9416161706180609060895B4
:104A900000240A9412161306140605060895092E1A
:104AA0000394000C11F4882352F0BB0F40F4BF2B89
:104AB00011F460FF04C06F5F7F4F8F4F9F4F0895C9
:104AC00057FD9058440F551F59F05F3F71F04795BF
:104AD000880F97FB991F61F09F3F79F087950895A4
:104AE000121613061406551FF2CF4695F1DF08C0C3
:104AF000161617061806991FF1CF869571056105E0
:104B000008940895E894BB2766277727CB0197F987
:104B100008958ADF08F48FEF08950BD0C0CFB1DF7E
:104B200028F0B6DF18F0952309F0A2CFA7CF112403
:104B3000EACFC6DFA0F3959FD1F3950F50E0551F44
:104B4000629FF001729FBB27F00DB11D639FAA27E2
:104B5000F00DB11DAA1F649F6627B00DA11D661F31
:104B6000829F2227B00DA11D621F739FB00DA11D52
:104B7000621F839FA00D611D221F749F3327A00D0C
:104B8000611D231F849F600D211D822F762F6A2FA8
:104B900011249F5750408AF0E1F088234AF0EE0F2D
:104BA000FF1FBB1F661F771F881F91505040A9F73A
:104BB0009E3F510570F05CCFA6CF5F3FECF3983E6F
:104BC000DCF3869577956795B795F795E7959F5FA1
:104BD000C1F7FE2B880F911D9695879597F908953B
:104BE00023DF880B990B0895629FD001739FF0011A
:104BF000829FE00DF11D649FE00DF11D929FF00D6D
:104C0000839FF00D749FF00D659FF00D9927729FA3
:104C1000B00DE11DF91F639FB00DE11DF91FBD012E
:104C2000CF0111240895AA1BBB1B51E107C0AA1F85
:104C3000BB1FA617B70710F0A61BB70B881F991F3D
:104C40005A95A9F780959095BC01CD01089597FBE1
:104C5000092E07260AD077FD04D0E5DF06D0002014
:104C60001AF4709561957F4F0895F6F790958195A8
:104C70009F4F0895A1E21A2EAA1BBB1BFD010DC078
:104C8000AA1FBB1FEE1FFF1FA217B307E407F507FC
:104C900020F0A21BB30BE40BF50B661F771F881FD8
:104CA000991F1A9469F760957095809590959B016E
:104CB000AC01BD01CF010895EE0FFF1F0590F491E7
:104CC000E02D0994803209F091110CC080528F556B
:104CD000E0F70895911106C0803219F0895085508F
:104CE000D0F708959927882708952F923F924F92E1
:104CF0005F926F927F928F929F92AF92BF92CF926C
:104D0000DF92EF92FF920F931F93CF93DF93CDB774
:104D1000DEB7CA1BDB0B0FB6F894DEBF0FBECDBFEC
:104D200009942A88398848885F846E847D848C84BD
:104D30009B84AA84B984C884DF80EE80FD800C81C6
:104D40001B81AA81B981CE0FD11D0FB6F894DEBFA9
:104D50000FBECDBFED01089511E0C6E0D1E004C063
:104D6000FE010E945E262296C830D107C9F7F8944A
:024D7000FFCF73
:104D72003120302035005245534554444546000AFF
:104D8200004745544C5444454C41593A005345540C
:104D92004C5444454C4159204552524F52005345C0
:104DA200544C5444454C41590047455443414C49A5
:104DB2004E49543A0053455443414C494E495420BC
:104DC2004552524F520053455443414C494E495467
:104DD20000474554434D4F44453A00534554434DD3
:104DE2004F4445204552524F5200534554434D4F74
:104DF20044450047455453414D504C494E473A00B3
:104E020053455453414D504C494E47204552524F01
:104E1200520053455453414D504C494E470047456B
:104E2200544252494748544E4553533A005345540D
:104E32004252494748544E455353204552524F52CD
:104E4200005345544252494748544E455353004734
:104E520045545343414C494E473A00200053455470
:104E62005343414C494E470047455443414C3A0055
:104E720053455443414C00445F5343414E3A004929
:104E8200495F5343414E3A00495F5343414E3A0012
:104E92005343414E3A00544F4E494E4F3A00544FFD
:104EA2004E494E4F005343414E00495F5343414EDA
:104EB2000049495F5343414E00445F5343414E0012
:104EC20047455443414C005345545343414C4900D8
:104ED2004745545343414C49005345544252494774
:104EE20048004745544252494748005345545341AC
:104EF2004D504C0047455453414D504C004745548A
:104F0200434D4F44450053455443414C494E00479D
:104F1200455443414C494E005345544C5444454C2E
:104F2200004745544C5444454C0020006E616E00CD
:104F3200696E66006F7666002E0080000F05000025
:104F42003F065B4F666D7D077F6F777C395E7971B7
:104F5200100804402001020000000038180718C0A1
:104F620017C917DE17EF1700000000F61F9720ACD5
:084F72001FC81FB81FE61F0055
:00000001FF
